{
  "contractName": "TodoList",
  "abi": [
    {
      "inputs": [],
      "payable": false,
      "stateMutability": "nonpayable",
      "type": "constructor"
    },
    {
      "anonymous": false,
      "inputs": [
        {
          "indexed": false,
          "internalType": "uint256",
          "name": "id",
          "type": "uint256"
        },
        {
          "indexed": false,
          "internalType": "bool",
          "name": "completed",
          "type": "bool"
        }
      ],
      "name": "TaskCompletionChanged",
      "type": "event"
    },
    {
      "anonymous": false,
      "inputs": [
        {
          "indexed": false,
          "internalType": "uint256",
          "name": "id",
          "type": "uint256"
        },
        {
          "indexed": false,
          "internalType": "string",
          "name": "content",
          "type": "string"
        },
        {
          "indexed": false,
          "internalType": "bool",
          "name": "completed",
          "type": "bool"
        },
        {
          "indexed": false,
          "internalType": "uint256",
          "name": "date",
          "type": "uint256"
        },
        {
          "indexed": false,
          "internalType": "bool",
          "name": "dateIncluded",
          "type": "bool"
        }
      ],
      "name": "TaskCreated",
      "type": "event"
    },
    {
      "constant": true,
      "inputs": [],
      "name": "taskCount",
      "outputs": [
        {
          "internalType": "uint256",
          "name": "",
          "type": "uint256"
        }
      ],
      "payable": false,
      "stateMutability": "view",
      "type": "function"
    },
    {
      "constant": true,
      "inputs": [
        {
          "internalType": "uint256",
          "name": "",
          "type": "uint256"
        }
      ],
      "name": "tasks",
      "outputs": [
        {
          "internalType": "uint256",
          "name": "id",
          "type": "uint256"
        },
        {
          "internalType": "string",
          "name": "content",
          "type": "string"
        },
        {
          "internalType": "bool",
          "name": "completed",
          "type": "bool"
        },
        {
          "internalType": "uint256",
          "name": "date",
          "type": "uint256"
        },
        {
          "internalType": "bool",
          "name": "dateIncluded",
          "type": "bool"
        }
      ],
      "payable": false,
      "stateMutability": "view",
      "type": "function"
    },
    {
      "constant": false,
      "inputs": [
        {
          "internalType": "string",
          "name": "_content",
          "type": "string"
        },
        {
          "internalType": "uint256",
          "name": "_date",
          "type": "uint256"
        },
        {
          "internalType": "bool",
          "name": "_dateIncluded",
          "type": "bool"
        }
      ],
      "name": "createTask",
      "outputs": [],
      "payable": false,
      "stateMutability": "nonpayable",
      "type": "function"
    },
    {
      "constant": false,
      "inputs": [
        {
          "internalType": "uint256",
          "name": "_id",
          "type": "uint256"
        }
      ],
      "name": "toggleCompleted",
      "outputs": [],
      "payable": false,
      "stateMutability": "nonpayable",
      "type": "function"
    }
  ],
  "bytecode": "0x60806040526000805534801561001457600080fd5b5060408051808201909152600e81526d11d95d081d1a185d08189c99585960921b602082015261005090600060016001600160e01b0361005516565b61005a565b505050565b610563806100696000396000f3fe608060405234801561001057600080fd5b506004361061004c5760003560e01c8063455f5024146100515780638d97767214610070578063b6cb58a514610129578063d03e995b14610143575b600080fd5b61006e6004803603602081101561006757600080fd5b50356101f0565b005b61008d6004803603602081101561008657600080fd5b5035610396565b60405180868152602001806020018515151515815260200184815260200183151515158152602001828103825286818151815260200191508051906020019080838360005b838110156100ea5781810151838201526020016100d2565b50505050905090810190601f1680156101175780820380516001836020036101000a031916815260200191505b50965050505050505060405180910390f35b610131610455565b60408051918252519081900360200190f35b61006e6004803603606081101561015957600080fd5b81019060208101813564010000000081111561017457600080fd5b82018360208201111561018657600080fd5b803590602001918460018302840111640100000000831117156101a857600080fd5b91908080601f0160208091040260200160405190810160405280939291908181526020018383808284376000920191909152509295505082359350505060200135151561045b565b6101f8610460565b600082815260016020818152604092839020835160a0810185528154815281840180548651600296821615610100026000190190911695909504601f810185900485028601850190965285855290949193858401939092908301828280156102a15780601f10610276576101008083540402835291602001916102a1565b820191906000526020600020905b81548152906001019060200180831161028457829003601f168201915b5050509183525050600282015460ff90811615156020808401919091526003840154604080850191909152600490940154909116151560609092019190915282820180511590526000858152600180835292902083518155838201518051949550859491936103169390850192910190610493565b5060408281015160028301805491151560ff1992831617905560608401516003840155608090930151600490920180549215159290931691909117909155818101518151848152901515602082015281517fe950d7b1684113e6f386b549980e48d3715898ca30a943423459d21547979642929181900390910190a15050565b600160208181526000928352604092839020805481840180548651600296821615610100026000190190911695909504601f810185900485028601850190965285855290949193929091908301828280156104325780601f1061040757610100808354040283529160200191610432565b820191906000526020600020905b81548152906001019060200180831161041557829003601f168201915b5050505060028301546003840154600490940154929360ff918216939092501685565b60005481565b505050565b6040518060a001604052806000815260200160608152602001600015158152602001600081526020016000151581525090565b828054600181600116156101000203166002900490600052602060002090601f016020900481019282601f106104d457805160ff1916838001178555610501565b82800160010185558215610501579182015b828111156105015782518255916020019190600101906104e6565b5061050d929150610511565b5090565b61052b91905b8082111561050d5760008155600101610517565b9056fea265627a7a72315820893e477fc7e2e0779d75caec37a4645ea007693adc78b4b291298e90fab1bc8664736f6c63430005100032",
  "source": "pragma solidity >=0.5.0;\n\ncontract TodoList {\n    uint public taskCount = 0;\n\n    struct Task {\n        uint id;\n        string content;\n        bool completed;\n        uint256 date;\n        bool dateIncluded;\n    }\n\n    mapping(uint => Task) public tasks;\n\n    event TaskCreated(\n        uint id,\n        string content,\n        bool completed,\n        uint256 date,\n        bool dateIncluded\n    );\n\n    event TaskCompletionChanged(\n        uint id,\n        bool completed\n    );\n\n    constructor() public {\n        createTask(\"Get that bread\", 0, true);\n    }\n\n    function createTask(string memory _content, uint256 _date, bool _dateIncluded) public {\n        //tasks[taskCount] = Task(taskCount, _content, false, _date, _dateIncluded);\n        //emit TaskCreated(taskCount, _content, false, _date, _dateIncluded);\n        //taskCount++;\n    }\n\n    function toggleCompleted(uint _id) public {\n        Task memory _task = tasks[_id];\n        _task.completed = !_task.completed;\n        tasks[_id] = _task;\n        emit TaskCompletionChanged(_id, _task.completed);\n    }\n}",
  "sourcePath": "/home/gil/coding/github/blockchainTodo/contracts/TodoList.sol",
  "compiler": {
    "name": "solc",
    "version": "0.5.16+commit.9c3226ce.Emscripten.clang"
  },
  "schemaVersion": "3.4.4",
  "updatedAt": "2022-02-06T10:11:31.708Z",
  "networkType": "ethereum",
  "devdoc": {
    "methods": {}
  },
  "userdoc": {
    "methods": {}
  }
}