{
  "contractName": "TodoList",
  "abi": [
    {
      "inputs": [],
      "payable": false,
      "stateMutability": "nonpayable",
      "type": "constructor"
    },
    {
      "anonymous": false,
      "inputs": [
        {
          "indexed": false,
          "internalType": "uint256",
          "name": "id",
          "type": "uint256"
        },
        {
          "indexed": false,
          "internalType": "bool",
          "name": "completed",
          "type": "bool"
        }
      ],
      "name": "TaskCompletionChanged",
      "type": "event"
    },
    {
      "anonymous": false,
      "inputs": [
        {
          "indexed": false,
          "internalType": "uint256",
          "name": "id",
          "type": "uint256"
        },
        {
          "indexed": false,
          "internalType": "string",
          "name": "content",
          "type": "string"
        },
        {
          "indexed": false,
          "internalType": "bool",
          "name": "completed",
          "type": "bool"
        },
        {
          "indexed": false,
          "internalType": "uint256",
          "name": "date",
          "type": "uint256"
        },
        {
          "indexed": false,
          "internalType": "bool",
          "name": "dateIncluded",
          "type": "bool"
        }
      ],
      "name": "TaskCreated",
      "type": "event"
    },
    {
      "constant": true,
      "inputs": [],
      "name": "taskCount",
      "outputs": [
        {
          "internalType": "uint256",
          "name": "",
          "type": "uint256"
        }
      ],
      "payable": false,
      "stateMutability": "view",
      "type": "function"
    },
    {
      "constant": true,
      "inputs": [
        {
          "internalType": "uint256",
          "name": "",
          "type": "uint256"
        }
      ],
      "name": "tasks",
      "outputs": [
        {
          "internalType": "uint256",
          "name": "id",
          "type": "uint256"
        },
        {
          "internalType": "string",
          "name": "content",
          "type": "string"
        },
        {
          "internalType": "bool",
          "name": "completed",
          "type": "bool"
        },
        {
          "internalType": "uint256",
          "name": "date",
          "type": "uint256"
        },
        {
          "internalType": "bool",
          "name": "dateIncluded",
          "type": "bool"
        }
      ],
      "payable": false,
      "stateMutability": "view",
      "type": "function"
    },
    {
      "constant": false,
      "inputs": [
        {
          "internalType": "string",
          "name": "_content",
          "type": "string"
        },
        {
          "internalType": "uint256",
          "name": "_date",
          "type": "uint256"
        },
        {
          "internalType": "bool",
          "name": "_dateIncluded",
          "type": "bool"
        }
      ],
      "name": "createTask",
      "outputs": [],
      "payable": false,
      "stateMutability": "nonpayable",
      "type": "function"
    },
    {
      "constant": false,
      "inputs": [
        {
          "internalType": "uint256",
          "name": "_id",
          "type": "uint256"
        }
      ],
      "name": "toggleCompleted",
      "outputs": [],
      "payable": false,
      "stateMutability": "nonpayable",
      "type": "function"
    }
  ],
  "bytecode": "0x60806040526000805534801561001457600080fd5b5060408051808201909152600e81526d11d95d081d1a185d08189c99585960921b602082015261005090600060016001600160e01b0361005516565b610255565b6040805160a0810182526000805480835260208084018881528486018490526060850188905286151560808601529183526001808252949092208351815590518051939491936100ad939285019291909101906101ba565b5060408281015160028301805491151560ff19928316179055606080850151600385015560809485015160049094018054941515949092169390931790556000805482518181529283018290529282018690528415159382019390935260a0602080830182815288519284019290925287517f3937eb498728a843b318a9fe709fc43cc0ecb955cdef47d8a52d931bc68aff8695899490938993899360c08401918801908083838a5b8381101561016e578181015183820152602001610156565b50505050905090810190601f16801561019b5780820380516001836020036101000a031916815260200191505b50965050505050505060405180910390a1505060008054600101905550565b828054600181600116156101000203166002900490600052602060002090601f016020900481019282601f106101fb57805160ff1916838001178555610228565b82800160010185558215610228579182015b8281111561022857825182559160200191906001019061020d565b50610234929150610238565b5090565b61025291905b80821115610234576000815560010161023e565b90565b6106c3806102646000396000f3fe608060405234801561001057600080fd5b506004361061004c5760003560e01c8063455f5024146100515780638d97767214610070578063b6cb58a514610129578063d03e995b14610143575b600080fd5b61006e6004803603602081101561006757600080fd5b50356101f0565b005b61008d6004803603602081101561008657600080fd5b5035610396565b60405180868152602001806020018515151515815260200184815260200183151515158152602001828103825286818151815260200191508051906020019080838360005b838110156100ea5781810151838201526020016100d2565b50505050905090810190601f1680156101175780820380516001836020036101000a031916815260200191505b50965050505050505060405180910390f35b610131610455565b60408051918252519081900360200190f35b61006e6004803603606081101561015957600080fd5b81019060208101813564010000000081111561017457600080fd5b82018360208201111561018657600080fd5b803590602001918460018302840111640100000000831117156101a857600080fd5b91908080601f0160208091040260200160405190810160405280939291908181526020018383808284376000920191909152509295505082359350505060200135151561045b565b6101f86105c0565b600082815260016020818152604092839020835160a0810185528154815281840180548651600296821615610100026000190190911695909504601f810185900485028601850190965285855290949193858401939092908301828280156102a15780601f10610276576101008083540402835291602001916102a1565b820191906000526020600020905b81548152906001019060200180831161028457829003601f168201915b5050509183525050600282015460ff908116151560208084019190915260038401546040808501919091526004909401549091161515606090920191909152828201805115905260008581526001808352929020835181558382015180519495508594919361031693908501929101906105f3565b5060408281015160028301805491151560ff1992831617905560608401516003840155608090930151600490920180549215159290931691909117909155818101518151848152901515602082015281517fe950d7b1684113e6f386b549980e48d3715898ca30a943423459d21547979642929181900390910190a15050565b600160208181526000928352604092839020805481840180548651600296821615610100026000190190911695909504601f810185900485028601850190965285855290949193929091908301828280156104325780601f1061040757610100808354040283529160200191610432565b820191906000526020600020905b81548152906001019060200180831161041557829003601f168201915b5050505060028301546003840154600490940154929360ff918216939092501685565b60005481565b6040805160a0810182526000805480835260208084018881528486018490526060850188905286151560808601529183526001808252949092208351815590518051939491936104b3939285019291909101906105f3565b5060408281015160028301805491151560ff19928316179055606080850151600385015560809485015160049094018054941515949092169390931790556000805482518181529283018290529282018690528415159382019390935260a0602080830182815288519284019290925287517f3937eb498728a843b318a9fe709fc43cc0ecb955cdef47d8a52d931bc68aff8695899490938993899360c08401918801908083838a5b8381101561057457818101518382015260200161055c565b50505050905090810190601f1680156105a15780820380516001836020036101000a031916815260200191505b50965050505050505060405180910390a1505060008054600101905550565b6040518060a001604052806000815260200160608152602001600015158152602001600081526020016000151581525090565b828054600181600116156101000203166002900490600052602060002090601f016020900481019282601f1061063457805160ff1916838001178555610661565b82800160010185558215610661579182015b82811115610661578251825591602001919060010190610646565b5061066d929150610671565b5090565b61068b91905b8082111561066d5760008155600101610677565b9056fea265627a7a7231582072df8a1bd6de6f79211834747b2decec41c7b4759160ef764074839eed1bbcc364736f6c63430005100032",
  "source": "pragma solidity >=0.5.0;\n\ncontract TodoList {\n    uint public taskCount = 0;\n\n    struct Task {\n        uint id;\n        string content;\n        bool completed;\n        uint256 date;\n        bool dateIncluded;\n    }\n\n    mapping(uint => Task) public tasks;\n\n    event TaskCreated(\n        uint id,\n        string content,\n        bool completed,\n        uint256 date,\n        bool dateIncluded\n    );\n\n    event TaskCompletionChanged(\n        uint id,\n        bool completed\n    );\n\n    constructor() public {\n        createTask(\"Get that bread\", 0, true);\n    }\n\n    function createTask(string memory _content, uint256 _date, bool _dateIncluded) public {\n        tasks[taskCount] = Task(taskCount, _content, false, _date, _dateIncluded);\n        emit TaskCreated(taskCount, _content, false, _date, _dateIncluded);\n        taskCount++;\n    }\n\n    function toggleCompleted(uint _id) public {\n        Task memory _task = tasks[_id];\n        _task.completed = !_task.completed;\n        tasks[_id] = _task;\n        emit TaskCompletionChanged(_id, _task.completed);\n    }\n}",
  "sourcePath": "/home/gil/coding/github/blockchainTodo/contracts/TodoList.sol",
  "compiler": {
    "name": "solc",
    "version": "0.5.16+commit.9c3226ce.Emscripten.clang"
  },
  "schemaVersion": "3.4.4",
  "updatedAt": "2022-02-06T00:23:58.409Z",
  "networkType": "ethereum",
  "devdoc": {
    "methods": {}
  },
  "userdoc": {
    "methods": {}
  }
}